{
  "contractName": "Forward",
  "abi": [
    {
      "inputs": [],
      "payable": false,
      "stateMutability": "nonpayable",
      "type": "constructor"
    },
    {
      "anonymous": false,
      "inputs": [],
      "name": "AlreadyOffered",
      "type": "event"
    },
    {
      "anonymous": false,
      "inputs": [],
      "name": "AssetReceived",
      "type": "event"
    },
    {
      "anonymous": false,
      "inputs": [],
      "name": "Created",
      "type": "event"
    },
    {
      "anonymous": false,
      "inputs": [
        {
          "indexed": false,
          "internalType": "uint256",
          "name": "current",
          "type": "uint256"
        },
        {
          "indexed": false,
          "internalType": "uint256",
          "name": "maturity",
          "type": "uint256"
        }
      ],
      "name": "CurrentTimeVsMaturity",
      "type": "event"
    },
    {
      "anonymous": false,
      "inputs": [
        {
          "indexed": false,
          "internalType": "bytes",
          "name": "key",
          "type": "bytes"
        }
      ],
      "name": "Longed",
      "type": "event"
    },
    {
      "anonymous": false,
      "inputs": [
        {
          "indexed": false,
          "internalType": "uint256",
          "name": "amountSent",
          "type": "uint256"
        },
        {
          "indexed": false,
          "internalType": "uint256",
          "name": "deliveryPrice",
          "type": "uint256"
        }
      ],
      "name": "PurchaseConfirmed",
      "type": "event"
    },
    {
      "anonymous": false,
      "inputs": [
        {
          "indexed": false,
          "internalType": "uint256",
          "name": "maturity",
          "type": "uint256"
        },
        {
          "indexed": false,
          "internalType": "uint256",
          "name": "deliveryPrice",
          "type": "uint256"
        },
        {
          "indexed": false,
          "internalType": "uint256",
          "name": "stockPrice",
          "type": "uint256"
        }
      ],
      "name": "Shorted",
      "type": "event"
    },
    {
      "constant": true,
      "inputs": [],
      "name": "T",
      "outputs": [
        {
          "internalType": "uint256",
          "name": "",
          "type": "uint256"
        }
      ],
      "payable": false,
      "stateMutability": "view",
      "type": "function"
    },
    {
      "constant": true,
      "inputs": [],
      "name": "deliveryPrice",
      "outputs": [
        {
          "internalType": "uint256",
          "name": "",
          "type": "uint256"
        }
      ],
      "payable": false,
      "stateMutability": "view",
      "type": "function"
    },
    {
      "constant": true,
      "inputs": [],
      "name": "state",
      "outputs": [
        {
          "internalType": "enum Forward.State",
          "name": "",
          "type": "uint8"
        }
      ],
      "payable": false,
      "stateMutability": "view",
      "type": "function"
    },
    {
      "constant": true,
      "inputs": [],
      "name": "stockPrice",
      "outputs": [
        {
          "internalType": "uint256",
          "name": "",
          "type": "uint256"
        }
      ],
      "payable": false,
      "stateMutability": "view",
      "type": "function"
    },
    {
      "constant": false,
      "inputs": [
        {
          "internalType": "uint256",
          "name": "_T",
          "type": "uint256"
        },
        {
          "internalType": "uint256",
          "name": "_deliveryPrice",
          "type": "uint256"
        },
        {
          "internalType": "uint256",
          "name": "_stockPrice",
          "type": "uint256"
        }
      ],
      "name": "short",
      "outputs": [],
      "payable": true,
      "stateMutability": "payable",
      "type": "function"
    },
    {
      "constant": false,
      "inputs": [],
      "name": "long",
      "outputs": [],
      "payable": true,
      "stateMutability": "payable",
      "type": "function"
    },
    {
      "constant": false,
      "inputs": [],
      "name": "confirmPurchase",
      "outputs": [],
      "payable": true,
      "stateMutability": "payable",
      "type": "function"
    },
    {
      "constant": false,
      "inputs": [],
      "name": "confirmReceived",
      "outputs": [],
      "payable": false,
      "stateMutability": "nonpayable",
      "type": "function"
    }
  ],
  "bytecode": "0x608060405234801561001057600080fd5b506000600560146101000a81548160ff0219169083600481111561003057fe5b02179055507f9adeddf84386b336eb7b3e18e7a6099be08fd81ea5d5142f4d2b630f8d20cf0160405160405180910390a1610b1a806100706000396000f3fe60806040526004361061007b5760003560e01c80639a20004f1161004e5780639a20004f1461010e578063c19d93fb14610139578063d696069714610172578063e2bff1dc1461017c5761007b565b80630460640b1461008057806307bfce37146100c25780632bc80f3a146100cc57806373fac6f0146100f7575b600080fd5b6100c06004803603606081101561009657600080fd5b810190808035906020019092919080359060200190929190803590602001909291905050506101a7565b005b6100ca61030a565b005b3480156100d857600080fd5b506100e1610538565b6040518082815260200191505060405180910390f35b34801561010357600080fd5b5061010c61053e565b005b34801561011a57600080fd5b5061012361075b565b6040518082815260200191505060405180910390f35b34801561014557600080fd5b5061014e610761565b6040518082600481111561015e57fe5b60ff16815260200191505060405180910390f35b61017a610774565b005b34801561018857600080fd5b50610191610a19565b6040518082815260200191505060405180910390f35b60008060048111156101b557fe5b600560149054906101000a900460ff1660048111156101d057fe5b14610243576040517f08c379a000000000000000000000000000000000000000000000000000000000815260040180806020018281038252600e8152602001807f496e76616c69642073746174652e00000000000000000000000000000000000081525060200191505060405180910390fd5b33600560006101000a81548173ffffffffffffffffffffffffffffffffffffffff021916908373ffffffffffffffffffffffffffffffffffffffff1602179055507f39d92b6df75a8059b4fa555b53530965d6539b10aca116eae7c993cae0cfbafd84848460405180848152602001838152602001828152602001935050505060405180910390a183600281905550826000819055506001600560146101000a81548160ff021916908360048111156102f857fe5b02179055508160018190555050505050565b600180600481111561031857fe5b600560149054906101000a900460ff16600481111561033357fe5b146103a6576040517f08c379a000000000000000000000000000000000000000000000000000000000815260040180806020018281038252600e8152602001807f496e76616c69642073746174652e00000000000000000000000000000000000081525060200191505060405180910390fd5b600560009054906101000a900473ffffffffffffffffffffffffffffffffffffffff1673ffffffffffffffffffffffffffffffffffffffff163373ffffffffffffffffffffffffffffffffffffffff1614158061040257600080fd5b33600460006101000a81548173ffffffffffffffffffffffffffffffffffffffff021916908373ffffffffffffffffffffffffffffffffffffffff16021790555060003660039190610455929190610a1f565b506002600560146101000a81548160ff0219169083600481111561047557fe5b02179055507f144165008ad37d25d0d706b861e4542c49197ae379011ce717668ab178f09eb5600360405180806020018281038252838181546001816001161561010002031660029004815260200191508054600181600116156101000203166002900480156105265780601f106104fb57610100808354040283529160200191610526565b820191906000526020600020905b81548152906001019060200180831161050957829003601f168201915b50509250505060405180910390a15050565b60025481565b600460009054906101000a900473ffffffffffffffffffffffffffffffffffffffff1673ffffffffffffffffffffffffffffffffffffffff163373ffffffffffffffffffffffffffffffffffffffff1614610601576040517f08c379a000000000000000000000000000000000000000000000000000000000815260040180806020018281038252601e8152602001807f4f6e6c79204c6f6e672050617274792063616e2063616c6c20746869732e000081525060200191505060405180910390fd5b600380600481111561060f57fe5b600560149054906101000a900460ff16600481111561062a57fe5b1461069d576040517f08c379a000000000000000000000000000000000000000000000000000000000815260040180806020018281038252600e8152602001807f496e76616c69642073746174652e00000000000000000000000000000000000081525060200191505060405180910390fd5b7f90d3a00058eaad9ac73a56643051618b355fc53eb5b0829a6eb5bd436595005960405160405180910390a16004600560146101000a81548160ff021916908360048111156106e857fe5b0217905550600460009054906101000a900473ffffffffffffffffffffffffffffffffffffffff1673ffffffffffffffffffffffffffffffffffffffff166108fc6000549081150290604051600060405180830381858888f19350505050158015610757573d6000803e3d6000fd5b5050565b60005481565b600560149054906101000a900460ff1681565b60025442101580156107ab57506002600481111561078e57fe5b600560149054906101000a900460ff1660048111156107a957fe5b145b610800576040517f08c379a0000000000000000000000000000000000000000000000000000000008152600401808060200182810382526021815260200180610ac56021913960400191505060405180910390fd5b600560009054906101000a900473ffffffffffffffffffffffffffffffffffffffff1673ffffffffffffffffffffffffffffffffffffffff163373ffffffffffffffffffffffffffffffffffffffff16146108c3576040517f08c379a000000000000000000000000000000000000000000000000000000000815260040180806020018281038252601f8152602001807f4f6e6c792053686f72742050617274792063616e2063616c6c20746869732e0081525060200191505060405180910390fd5b60028060048111156108d157fe5b600560149054906101000a900460ff1660048111156108ec57fe5b1461095f576040517f08c379a000000000000000000000000000000000000000000000000000000000815260040180806020018281038252600e8152602001807f496e76616c69642073746174652e00000000000000000000000000000000000081525060200191505060405180910390fd5b6000543410158061096f57600080fd5b6003600560146101000a81548160ff0219169083600481111561098e57fe5b02179055507fb2b5fa8ba622a40273acf4bf9f1e641d6f068ef11f11929daaa145e1ef01f2c634600054604051808381526020018281526020019250505060405180910390a17f63896f1b9176eacd3317f84f3fde1c154710c55b92729e9f7afea6c6d772aae742600254604051808381526020018281526020019250505060405180910390a15050565b60015481565b828054600181600116156101000203166002900490600052602060002090601f016020900481019282601f10610a6057803560ff1916838001178555610a8e565b82800160010185558215610a8e579182015b82811115610a8d578235825591602001919060010190610a72565b5b509050610a9b9190610a9f565b5090565b610ac191905b80821115610abd576000816000905550600101610aa5565b5090565b9056fe436f6e7472616374206861736e27742072656163686564206d617475726974792ea265627a7a723158203abedf8705cc8b7db066b53d748eb057d38e43a9ed770c7390c70899ac51c4e564736f6c634300050c0032",
  "source": "pragma solidity ^0.5.12;\n\ncontract Forward {\n\n  uint public deliveryPrice;\n  uint public stockPrice; // at time 0\n  uint public T; // maturity\n  bytes private key;\n  address payable longParty;\n  address payable shortParty;\n  \n  enum State { Created, Offered, Agreed, Locked, Inactive }\n  State public state;\n\n  event Created();\n  event AlreadyOffered();\n  event Shorted(uint maturity, uint deliveryPrice, uint stockPrice);\n  event Longed(bytes key);\n  event PurchaseConfirmed(uint amountSent, uint deliveryPrice);\n  event AssetReceived();\n  event CurrentTimeVsMaturity(uint current, uint maturity);\n  modifier onlyLongParty() {\n    require(\n            msg.sender == longParty,\n            \"Only Long Party can call this.\"\n\t    );\n    _;\n  }\n\n\n  modifier onlyShortParty() {\n    require(\n            msg.sender == shortParty,\n            \"Only Short Party can call this.\"\n\t    );\n    _;\n  }\n  \n  modifier inState(State _state) {\n    require(\n            state == _state,\n            \"Invalid state.\"\n\t    );\n    _;\n  }\n\n  modifier condition(bool _condition) {\n    require(_condition);\n    _;\n  }\n\n  modifier onlyAtMaturity() {\n    require(\n            now >= T && state == State.Agreed,\n            \"Contract hasn't reached maturity.\"\n  \t    );\n    _;\n  }\n  \n  constructor() public {\n    state = State.Created;\n    emit Created();\n  }\n  \n  function short(uint _T, uint _deliveryPrice, uint _stockPrice)\n    public\n    payable\n    inState(State.Created)\n  {\n    shortParty = msg.sender;\n    emit Shorted(_T, _deliveryPrice, _stockPrice);\n    T = _T;\n    deliveryPrice = _deliveryPrice;\n    state = State.Offered;\n    stockPrice = _stockPrice;\n    \n  }\n\n  function long()\n    public\n    payable\n    inState(State.Offered)\n    condition(msg.sender != shortParty)\n  {\n    longParty = msg.sender;\n    key = msg.data;\n    state = State.Agreed;\n    emit Longed(key);\n  }\n\n  function confirmPurchase()\n    public\n    onlyAtMaturity\n    onlyShortParty\n    inState(State.Agreed)\n    condition(msg.value >= deliveryPrice)\n    payable\n  {\n    state = State.Locked;\n    emit PurchaseConfirmed(msg.value, deliveryPrice);\n    emit CurrentTimeVsMaturity(now, T);\n  }\n\n  function confirmReceived()\n    public\n    onlyLongParty\n    inState(State.Locked)\n  {\n    emit AssetReceived();\n    state = State.Inactive;\n    longParty.transfer(deliveryPrice);\n\n    \n\n  }\n}\n",
  "sourcePath": "/Users/prikshetsharma/Documents/Fall_2019/MTH_210_Research/dev-tools-truffle-example/contracts/Forward.sol",
  "compiler": {
    "name": "solc",
    "version": "0.5.12+commit.7709ece9.Emscripten.clang"
  },
  "schemaVersion": "3.0.19",
  "updatedAt": "2019-12-04T15:05:29.813Z",
  "devdoc": {
    "methods": {}
  },
  "userdoc": {
    "methods": {}
  }
}