{
  "contractName": "MetaCoin",
  "abi": [
    {
      "inputs": [],
      "payable": false,
      "stateMutability": "nonpayable",
      "type": "constructor"
    },
    {
      "constant": true,
      "inputs": [
        {
          "internalType": "address",
          "name": "",
          "type": "address"
        }
      ],
      "name": "balances",
      "outputs": [
        {
          "internalType": "uint256",
          "name": "",
          "type": "uint256"
        }
      ],
      "payable": false,
      "stateMutability": "view",
      "type": "function"
    },
    {
      "constant": false,
      "inputs": [
        {
          "internalType": "address",
          "name": "safeMath",
          "type": "address"
        },
        {
          "internalType": "address",
          "name": "receiver",
          "type": "address"
        },
        {
          "internalType": "uint256",
          "name": "amount",
          "type": "uint256"
        }
      ],
      "name": "sendCoin",
      "outputs": [],
      "payable": false,
      "stateMutability": "nonpayable",
      "type": "function"
    }
  ],
  "bytecode": "0x608060405234801561001057600080fd5b5060016000803273ffffffffffffffffffffffffffffffffffffffff1673ffffffffffffffffffffffffffffffffffffffff1681526020019081526020016000208190555061037b806100646000396000f3fe608060405234801561001057600080fd5b50600436106100365760003560e01c80630b40bd881461003b57806327e235e3146100a9575b600080fd5b6100a76004803603606081101561005157600080fd5b81019080803573ffffffffffffffffffffffffffffffffffffffff169060200190929190803573ffffffffffffffffffffffffffffffffffffffff16906020019092919080359060200190929190505050610101565b005b6100eb600480360360208110156100bf57600080fd5b81019080803573ffffffffffffffffffffffffffffffffffffffff16906020019092919050505061032e565b6040518082815260200191505060405180910390f35b8273ffffffffffffffffffffffffffffffffffffffff1663b67d77c56000803373ffffffffffffffffffffffffffffffffffffffff1673ffffffffffffffffffffffffffffffffffffffff16815260200190815260200160002054836040518363ffffffff1660e01b8152600401808381526020018281526020019250505060206040518083038186803b15801561019857600080fd5b505afa1580156101ac573d6000803e3d6000fd5b505050506040513d60208110156101c257600080fd5b81019080805190602001909291905050506000803373ffffffffffffffffffffffffffffffffffffffff1673ffffffffffffffffffffffffffffffffffffffff168152602001908152602001600020819055508273ffffffffffffffffffffffffffffffffffffffff1663771602f76000808573ffffffffffffffffffffffffffffffffffffffff1673ffffffffffffffffffffffffffffffffffffffff16815260200190815260200160002054836040518363ffffffff1660e01b8152600401808381526020018281526020019250505060206040518083038186803b1580156102ac57600080fd5b505afa1580156102c0573d6000803e3d6000fd5b505050506040513d60208110156102d657600080fd5b81019080805190602001909291905050506000808473ffffffffffffffffffffffffffffffffffffffff1673ffffffffffffffffffffffffffffffffffffffff16815260200190815260200160002081905550505050565b6000602052806000526040600020600091509050548156fea265627a7a723158207258d37d53510ed7dd1e9eb7e2596b723a145b9b345001cf70b5da2ea64a733264736f6c634300050c0032",
  "source": "pragma solidity ^0.5.12;\n\nimport {SafeMath} from \"./SafeMath.sol\";\n\ncontract MetaCoin {\n\tmapping (address => uint) public balances;\n\n\tconstructor() public {\n\t\tbalances[tx.origin] = 1;\n\t}\n\n\tfunction sendCoin(address safeMath, address receiver, uint amount) public {\n\t\tbalances[msg.sender] = SafeMath(safeMath).sub(balances[msg.sender], amount);\n\t\tbalances[receiver] = SafeMath(safeMath).add(balances[receiver], amount);\n\t}\n}\n",
  "sourcePath": "/Users/prikshetsharma/Documents/Fall_2019/MTH_210_Research/dev-tools-truffle-example/contracts/MetaCoin.sol",
  "compiler": {
    "name": "solc",
    "version": "0.5.12+commit.7709ece9.Emscripten.clang"
  },
  "schemaVersion": "3.0.19",
  "updatedAt": "2019-12-04T13:01:58.458Z",
  "networkType": "ethereum",
  "devdoc": {
    "methods": {}
  },
  "userdoc": {
    "methods": {}
  }
}