{
  "contractName": "SafeMath",
  "abi": [
    {
      "constant": true,
      "inputs": [
        {
          "internalType": "uint256",
          "name": "a",
          "type": "uint256"
        },
        {
          "internalType": "uint256",
          "name": "b",
          "type": "uint256"
        }
      ],
      "name": "sub",
      "outputs": [
        {
          "internalType": "uint256",
          "name": "",
          "type": "uint256"
        }
      ],
      "payable": false,
      "stateMutability": "pure",
      "type": "function"
    },
    {
      "constant": true,
      "inputs": [
        {
          "internalType": "uint256",
          "name": "a",
          "type": "uint256"
        },
        {
          "internalType": "uint256",
          "name": "b",
          "type": "uint256"
        }
      ],
      "name": "add",
      "outputs": [
        {
          "internalType": "uint256",
          "name": "",
          "type": "uint256"
        }
      ],
      "payable": false,
      "stateMutability": "pure",
      "type": "function"
    }
  ],
  "bytecode": "0x608060405234801561001057600080fd5b50610147806100206000396000f3fe608060405234801561001057600080fd5b50600436106100365760003560e01c8063771602f71461003b578063b67d77c514610087575b600080fd5b6100716004803603604081101561005157600080fd5b8101908080359060200190929190803590602001909291905050506100d3565b6040518082815260200191505060405180910390f35b6100bd6004803603604081101561009d57600080fd5b8101908080359060200190929190803590602001909291905050506100f2565b6040518082815260200191505060405180910390f35b6000808284019050838110156100e857600080fd5b8091505092915050565b60008282111561010157600080fd5b60008284039050809150509291505056fea265627a7a72315820d94fd22c057a8504142da59393e0169cc4d1ff692cecd54339a00c51e2907c9664736f6c634300050c0032",
  "source": "pragma solidity ^0.5.12;\n\n/**\n * @title SafeMath\n * @dev Unsigned math operations with safety checks that revert on error\n */\ncontract SafeMath {\n    /**\n    * @dev Subtracts two unsigned integers, reverts on overflow (i.e. if subtrahend is greater than minuend).\n    */\n    function sub(uint256 a, uint256 b) public pure returns (uint256) {\n        require(b <= a);\n        uint256 c = a - b;\n        return c;\n    }\n\n    /**\n    * @dev Adds two unsigned integers, reverts on overflow.\n    */\n    function add(uint256 a, uint256 b) public pure returns (uint256) {\n        uint256 c = a + b;\n        require(c >= a);\n        return c;\n    }\n}\n",
  "sourcePath": "/Users/prikshetsharma/Documents/Fall_2019/MTH_210_Research/dev-tools-truffle-example/contracts/SafeMath.sol",
  "compiler": {
    "name": "solc",
    "version": "0.5.12+commit.7709ece9.Emscripten.clang"
  },
  "schemaVersion": "3.0.19",
  "updatedAt": "2019-12-04T13:01:58.457Z",
  "networkType": "ethereum",
  "devdoc": {
    "details": "Unsigned math operations with safety checks that revert on error",
    "methods": {
      "add(uint256,uint256)": {
        "details": "Adds two unsigned integers, reverts on overflow."
      },
      "sub(uint256,uint256)": {
        "details": "Subtracts two unsigned integers, reverts on overflow (i.e. if subtrahend is greater than minuend)."
      }
    },
    "title": "SafeMath"
  },
  "userdoc": {
    "methods": {}
  }
}