{
  "contractName": "Swap",
  "abi": [
    {
      "inputs": [],
      "payable": false,
      "stateMutability": "nonpayable",
      "type": "constructor"
    },
    {
      "anonymous": false,
      "inputs": [
        {
          "indexed": false,
          "internalType": "address",
          "name": "sender",
          "type": "address"
        },
        {
          "indexed": false,
          "internalType": "uint256",
          "name": "receiver",
          "type": "uint256"
        },
        {
          "indexed": false,
          "internalType": "uint256",
          "name": "amount",
          "type": "uint256"
        }
      ],
      "name": "ContractActive",
      "type": "event"
    },
    {
      "anonymous": false,
      "inputs": [
        {
          "indexed": false,
          "internalType": "address",
          "name": "fixedLeg",
          "type": "address"
        }
      ],
      "name": "FixedOffered",
      "type": "event"
    },
    {
      "anonymous": false,
      "inputs": [
        {
          "indexed": false,
          "internalType": "address",
          "name": "sender",
          "type": "address"
        },
        {
          "indexed": false,
          "internalType": "address",
          "name": "receiver",
          "type": "address"
        },
        {
          "indexed": false,
          "internalType": "uint256",
          "name": "amount",
          "type": "uint256"
        }
      ],
      "name": "FixedPaymentSent",
      "type": "event"
    },
    {
      "anonymous": false,
      "inputs": [
        {
          "indexed": false,
          "internalType": "address",
          "name": "floatingLeg",
          "type": "address"
        }
      ],
      "name": "FloatingOffered",
      "type": "event"
    },
    {
      "anonymous": false,
      "inputs": [
        {
          "indexed": false,
          "internalType": "address",
          "name": "sender",
          "type": "address"
        },
        {
          "indexed": false,
          "internalType": "address",
          "name": "receiver",
          "type": "address"
        },
        {
          "indexed": false,
          "internalType": "uint256",
          "name": "amount",
          "type": "uint256"
        }
      ],
      "name": "FloatingPaymentSent",
      "type": "event"
    },
    {
      "constant": true,
      "inputs": [],
      "name": "T",
      "outputs": [
        {
          "internalType": "uint256",
          "name": "",
          "type": "uint256"
        }
      ],
      "payable": false,
      "stateMutability": "view",
      "type": "function"
    },
    {
      "constant": true,
      "inputs": [],
      "name": "fixedRate",
      "outputs": [
        {
          "internalType": "uint256",
          "name": "",
          "type": "uint256"
        }
      ],
      "payable": false,
      "stateMutability": "view",
      "type": "function"
    },
    {
      "constant": true,
      "inputs": [],
      "name": "state",
      "outputs": [
        {
          "internalType": "enum Swap.State",
          "name": "",
          "type": "uint8"
        }
      ],
      "payable": false,
      "stateMutability": "view",
      "type": "function"
    },
    {
      "constant": true,
      "inputs": [],
      "name": "timeInterval",
      "outputs": [
        {
          "internalType": "uint256",
          "name": "",
          "type": "uint256"
        }
      ],
      "payable": false,
      "stateMutability": "view",
      "type": "function"
    },
    {
      "constant": false,
      "inputs": [
        {
          "internalType": "uint256",
          "name": "_T",
          "type": "uint256"
        }
      ],
      "name": "offerFloating",
      "outputs": [
        {
          "internalType": "bool",
          "name": "success",
          "type": "bool"
        }
      ],
      "payable": true,
      "stateMutability": "payable",
      "type": "function"
    },
    {
      "constant": false,
      "inputs": [],
      "name": "offerFixed",
      "outputs": [],
      "payable": true,
      "stateMutability": "payable",
      "type": "function"
    },
    {
      "constant": false,
      "inputs": [],
      "name": "agreeFixed",
      "outputs": [],
      "payable": true,
      "stateMutability": "payable",
      "type": "function"
    },
    {
      "constant": false,
      "inputs": [],
      "name": "sendFixed",
      "outputs": [],
      "payable": true,
      "stateMutability": "payable",
      "type": "function"
    },
    {
      "constant": false,
      "inputs": [
        {
          "internalType": "uint256",
          "name": "forTime",
          "type": "uint256"
        }
      ],
      "name": "sendFloating",
      "outputs": [],
      "payable": true,
      "stateMutability": "payable",
      "type": "function"
    }
  ],
  "bytecode": "0x6080604052600a60065534801561001557600080fd5b506000600460146101000a81548160ff0219169083600581111561003557fe5b0217905550610cf6806100496000396000f3fe6080604052600436106100865760003560e01c8063802d142211610059578063802d1422146100f85780638f51643814610123578063afc435711461014e578063c19d93fb14610158578063c37db1371461019157610086565b806315e202221461008b5780632bc80f3a146100955780634e22fba9146100c05780636ce9fdaf146100ee575b600080fd5b6100936101d7565b005b3480156100a157600080fd5b506100aa61035c565b6040518082815260200191505060405180910390f35b6100ec600480360360208110156100d657600080fd5b8101908080359060200190929190505050610362565b005b6100f66106d4565b005b34801561010457600080fd5b5061010d610946565b6040518082815260200191505060405180910390f35b34801561012f57600080fd5b5061013861094c565b6040518082815260200191505060405180910390f35b610156610952565b005b34801561016457600080fd5b5061016d610b16565b6040518082600581111561017d57fe5b60ff16815260200191505060405180910390f35b6101bd600480360360208110156101a757600080fd5b8101908080359060200190929190505050610b29565b604051808215151515815260200191505060405180910390f35b60028060058111156101e557fe5b600460149054906101000a900460ff16600581111561020057fe5b14610273576040517f08c379a000000000000000000000000000000000000000000000000000000000815260040180806020018281038252600e8152602001807f496e76616c69642073746174652e00000000000000000000000000000000000081525060200191505060405180910390fd5b600460009054906101000a900473ffffffffffffffffffffffffffffffffffffffff1673ffffffffffffffffffffffffffffffffffffffff163373ffffffffffffffffffffffffffffffffffffffff1614610336576040517f08c379a000000000000000000000000000000000000000000000000000000000815260040180806020018281038252601e8152602001807f4f6e6c79204c6f6e672050617274792063616e2063616c6c20746869732e000081525060200191505060405180910390fd5b60048060146101000a81548160ff0219169083600581111561035457fe5b021790555050565b60025481565b600460009054906101000a900473ffffffffffffffffffffffffffffffffffffffff1673ffffffffffffffffffffffffffffffffffffffff163373ffffffffffffffffffffffffffffffffffffffff1614610425576040517f08c379a000000000000000000000000000000000000000000000000000000000815260040180806020018281038252601e8152602001807f4f6e6c79204c6f6e672050617274792063616e2063616c6c20746869732e000081525060200191505060405180910390fd5b600380600581111561043357fe5b600460149054906101000a900460ff16600581111561044e57fe5b146104c1576040517f08c379a000000000000000000000000000000000000000000000000000000000815260040180806020018281038252600e8152602001807f496e76616c69642073746174652e00000000000000000000000000000000000081525060200191505060405180910390fd5b600254421115806104d157600080fd5b82421015806104df57600080fd5b60065460015402341015806104f357600080fd5b600460009054906101000a900473ffffffffffffffffffffffffffffffffffffffff1673ffffffffffffffffffffffffffffffffffffffff166108fc6005549081150290604051600060405180830381858888f1935050505015801561055d573d6000803e3d6000fd5b50600360009054906101000a900473ffffffffffffffffffffffffffffffffffffffff1673ffffffffffffffffffffffffffffffffffffffff166108fc349081150290604051600060405180830381858888f193505050501580156105c6573d6000803e3d6000fd5b5060048060146101000a81548160ff021916908360058111156105e557fe5b02179055507f5070760a4b3aea01b77d0b65c10b2a62185c0d2974df667a36fba6eba0259d29600460009054906101000a900473ffffffffffffffffffffffffffffffffffffffff16600360009054906101000a900473ffffffffffffffffffffffffffffffffffffffff1634604051808473ffffffffffffffffffffffffffffffffffffffff1673ffffffffffffffffffffffffffffffffffffffff1681526020018373ffffffffffffffffffffffffffffffffffffffff1673ffffffffffffffffffffffffffffffffffffffff168152602001828152602001935050505060405180910390a15050505050565b600360009054906101000a900473ffffffffffffffffffffffffffffffffffffffff1673ffffffffffffffffffffffffffffffffffffffff163373ffffffffffffffffffffffffffffffffffffffff1614610797576040517f08c379a000000000000000000000000000000000000000000000000000000000815260040180806020018281038252601f8152602001807f4f6e6c792053686f72742050617274792063616e2063616c6c20746869732e0081525060200191505060405180910390fd5b60048060058111156107a557fe5b600460149054906101000a900460ff1660058111156107c057fe5b14610833576040517f08c379a000000000000000000000000000000000000000000000000000000000815260040180806020018281038252600e8152602001807f496e76616c69642073746174652e00000000000000000000000000000000000081525060200191505060405180910390fd5b6002544211158061084357600080fd5b600054600154023410158061085757600080fd5b346005819055507f664bf34ef49f7c8c4deb6a491666e9d81520164521446bb7fc409edb2497ec5a600360009054906101000a900473ffffffffffffffffffffffffffffffffffffffff16600460009054906101000a900473ffffffffffffffffffffffffffffffffffffffff1634604051808473ffffffffffffffffffffffffffffffffffffffff1673ffffffffffffffffffffffffffffffffffffffff1681526020018373ffffffffffffffffffffffffffffffffffffffff1673ffffffffffffffffffffffffffffffffffffffff168152602001828152602001935050505060405180910390a1505050565b60005481565b60015481565b600180600581111561096057fe5b600460149054906101000a900460ff16600581111561097b57fe5b146109ee576040517f08c379a000000000000000000000000000000000000000000000000000000000815260040180806020018281038252600e8152602001807f496e76616c69642073746174652e00000000000000000000000000000000000081525060200191505060405180910390fd5b600460009054906101000a900473ffffffffffffffffffffffffffffffffffffffff1673ffffffffffffffffffffffffffffffffffffffff163373ffffffffffffffffffffffffffffffffffffffff16141580610a4a57600080fd5b33600360006101000a81548173ffffffffffffffffffffffffffffffffffffffff021916908373ffffffffffffffffffffffffffffffffffffffff1602179055506002600460146101000a81548160ff02191690836005811115610aaa57fe5b02179055507fa51e7a742efce916dab2e3282f7549ece4396ec12d2c42d1de6f4aca0a532f2333604051808273ffffffffffffffffffffffffffffffffffffffff1673ffffffffffffffffffffffffffffffffffffffff16815260200191505060405180910390a15050565b600460149054906101000a900460ff1681565b600080806005811115610b3857fe5b600460149054906101000a900460ff166005811115610b5357fe5b14610bc6576040517f08c379a000000000000000000000000000000000000000000000000000000000815260040180806020018281038252600e8152602001807f496e76616c69642073746174652e00000000000000000000000000000000000081525060200191505060405180910390fd5b33600460006101000a81548173ffffffffffffffffffffffffffffffffffffffff021916908373ffffffffffffffffffffffffffffffffffffffff1602179055507fd5787241eaeff277fa6f135db8abb5879033984b2a76938a7cdb2cfffa707701600460009054906101000a900473ffffffffffffffffffffffffffffffffffffffff16604051808273ffffffffffffffffffffffffffffffffffffffff1673ffffffffffffffffffffffffffffffffffffffff16815260200191505060405180910390a1826002819055506001600460146101000a81548160ff02191690836005811115610cb257fe5b0217905550600191505091905056fea265627a7a72315820ada7af6c53acf1dec9ee7ee2bf949b8c051be435112f3ab551e93970f53d7ed164736f6c634300050c0032",
  "source": "pragma solidity ^0.5.12;\n\ncontract Swap {\n\n  uint public fixedRate;\n  uint public timeInterval; \n  uint public T; // maturity\n\n  address payable fixedLeg;\n  address payable floatingLeg;\n  \n  enum State { Created, FloatingOffered, FixedOffered, FixedSent, FloatingSent, Inactive }\n  State public state;\n\n  event FloatingOffered(address floatingLeg);\n  event FixedOffered(address fixedLeg);\n  event ContractActive(address sender, uint receiver, uint amount);\n  event FixedPaymentSent(address sender, address receiver, uint amount);\n  event FloatingPaymentSent(address sender, address receiver, uint amount);\n  \n  modifier onlyFloatingLeg() {\n    require(\n            msg.sender == floatingLeg,\n            \"Only Long Party can call this.\"\n\t    );\n    _;\n  }\n\n\n  modifier onlyFixedLeg() {\n    require(\n            msg.sender == fixedLeg,\n            \"Only Short Party can call this.\"\n\t    );\n    _;\n  }\n  \n  modifier inState(State _state) {\n    require(\n            state == _state,\n            \"Invalid state.\"\n\t    );\n    _;\n  }\n\n  modifier condition(bool _condition) {\n    require(_condition);\n    _;\n  }\n\n  \n  constructor() public {\n    state = State.Created;\n  }\n  \n  function offerFloating(uint _T)\n    public\n    payable\n    inState(State.Created)\n    returns (bool success)\n  {\n    floatingLeg = msg.sender;\n    emit FloatingOffered(floatingLeg);\n    T = _T;\n    state = State.FloatingOffered;\n    return true;\n  }\n\n  function offerFixed()\n    public\n    payable\n    inState(State.FloatingOffered)\n    condition(msg.sender != floatingLeg)\n  {\n    fixedLeg = msg.sender;\n    state = State.FixedOffered;\n    emit FixedOffered(msg.sender);\n  }\n\n  function agreeFixed()\n    public\n    payable\n    inState(State.FixedOffered)\n    onlyFloatingLeg\n  {\n    state = State.FloatingSent;\n  }\n\n  uint amountToSend;\n\n  function sendFixed()\n    public\n    \n    onlyFixedLeg\n    inState(State.FloatingSent)\n    condition(now <= T)\n    condition(msg.value >= timeInterval * fixedRate)\n    payable\n  {\n    amountToSend = msg.value;\n    emit FixedPaymentSent(fixedLeg, floatingLeg, msg.value);\n  }\n\n  uint liborRate = 10; \n  function sendFloating(uint forTime)\n    public\n    payable\n    onlyFloatingLeg\n    inState(State.FixedSent)\n    condition(now <= T)\n    condition(now >= forTime)\n    condition(msg.value >= timeInterval * liborRate)\n  {\n    floatingLeg.transfer(amountToSend);\n    fixedLeg.transfer(msg.value);\n    state = State.FloatingSent;\n    emit FloatingPaymentSent(floatingLeg, fixedLeg, msg.value);\n  }\n  \n}\n",
  "sourcePath": "/Users/prikshetsharma/Documents/Fall_2019/MTH_210_Research/dev-tools-truffle-example/contracts/Swap.sol",
  "compiler": {
    "name": "solc",
    "version": "0.5.12+commit.7709ece9.Emscripten.clang"
  },
  "schemaVersion": "3.0.19",
  "updatedAt": "2019-12-04T13:01:58.465Z",
  "networkType": "ethereum",
  "devdoc": {
    "methods": {}
  },
  "userdoc": {
    "methods": {}
  }
}