{
  "contractName": "Token",
  "abi": [
    {
      "inputs": [],
      "payable": false,
      "stateMutability": "nonpayable",
      "type": "constructor"
    },
    {
      "anonymous": false,
      "inputs": [],
      "name": "Constructor",
      "type": "event"
    },
    {
      "constant": true,
      "inputs": [
        {
          "internalType": "address",
          "name": "",
          "type": "address"
        }
      ],
      "name": "balances",
      "outputs": [
        {
          "internalType": "uint256",
          "name": "",
          "type": "uint256"
        }
      ],
      "payable": false,
      "stateMutability": "view",
      "type": "function"
    },
    {
      "constant": false,
      "inputs": [
        {
          "internalType": "address",
          "name": "_to",
          "type": "address"
        },
        {
          "internalType": "uint256",
          "name": "_amount",
          "type": "uint256"
        }
      ],
      "name": "transfer",
      "outputs": [],
      "payable": false,
      "stateMutability": "nonpayable",
      "type": "function"
    }
  ],
  "bytecode": "0x608060405234801561001057600080fd5b50620f42406000803373ffffffffffffffffffffffffffffffffffffffff1673ffffffffffffffffffffffffffffffffffffffff168152602001908152602001600020819055507f8a3c44a5a4b78d389fcb783d05990990bd6f9eda6bff28c00b8a1c7b24ef4cef60405160405180910390a1610216806100926000396000f3fe608060405234801561001057600080fd5b50600436106100365760003560e01c806327e235e31461003b578063a9059cbb14610093575b600080fd5b61007d6004803603602081101561005157600080fd5b81019080803573ffffffffffffffffffffffffffffffffffffffff1690602001909291905050506100e1565b6040518082815260200191505060405180910390f35b6100df600480360360408110156100a957600080fd5b81019080803573ffffffffffffffffffffffffffffffffffffffff169060200190929190803590602001909291905050506100f9565b005b60006020528060005260406000206000915090505481565b806000803373ffffffffffffffffffffffffffffffffffffffff1673ffffffffffffffffffffffffffffffffffffffff16815260200190815260200160002054108061014457600080fd5b816000803373ffffffffffffffffffffffffffffffffffffffff1673ffffffffffffffffffffffffffffffffffffffff16815260200190815260200160002060008282540392505081905550816000808573ffffffffffffffffffffffffffffffffffffffff1673ffffffffffffffffffffffffffffffffffffffff1681526020019081526020016000206000828254019250508190555050505056fea265627a7a72315820e91b0df6d8f4e276cc41f13bcac229055147041cc70b1bdb15918dac84ca478864736f6c634300050c0032",
  "source": "pragma solidity >=0.4.22 <0.6.0;                                                                                                                                                                                                                                                              \ncontract Token {                                                                                                                                                                                                                                                                      \n  mapping (address => uint) public balances;\n    \n  modifier condition(bool _condition) {\n    require(_condition);\n    _;\n  }\n  event Constructor();\n  constructor() public {                                                                                                                                                                                                                                                                \n    balances[msg.sender] = 1000000;                                                                                                        emit Constructor();                                                                                                                                       \n  }                                                                                                                                                                                                                                                                                 \n  function transfer(address _to, uint _amount) public \n    condition(balances[msg.sender] < _amount)\n  {                                                                                                                                                                                                                                    \n        \n    balances[msg.sender] -= _amount;                                                                                                                                                                                                                                              \n    balances[_to] += _amount;                                                                                                                                                                                                                                                     \n  }                                                                                                                                                                                                                                                                                 \n}         \n",
  "sourcePath": "/Users/prikshetsharma/Documents/Fall_2019/MTH_210_Research/dev-tools-truffle-example/contracts/Token.sol",
  "compiler": {
    "name": "solc",
    "version": "0.5.12+commit.7709ece9.Emscripten.clang"
  },
  "schemaVersion": "3.0.19",
  "updatedAt": "2019-12-04T12:46:09.301Z",
  "devdoc": {
    "methods": {}
  },
  "userdoc": {
    "methods": {}
  }
}